:107000005FC0000078C0000076C0000074C00000BF
:1070100072C0000070C000006EC000006CC00000B4
:107020006AC0000068C0000002C4000064C0000024
:1070300062C0000060C000005EC000005CC00000D4
:107040005AC0000058C0000056C0000054C00000E4
:1070500052C0000050C000004EC000004CC00000F4
:107060004AC0000048C0000046C0000044C0000004
:1070700042C0000040C000003EC000003CC0000014
:107080003AC0000038C0000036C0000034C0000024
:1070900032C0000030C000002EC000002CC0000034
:1070A0002AC0000028C0000026C000007F3D983D97
:1070B000443E983D443ED03DF23D443E123E243E87
:1070C00011241FBECFEFDAE0DEBFCDBF11E0A0E09C
:1070D000B1E0E2E1FDE702C005900D92A03AB107F0
:1070E000D9F721E0A0EAB1E001C01D92AE3AB207A3
:1070F000E1F7ADD20CC684CF84E08093E9008091A3
:10710000E80085FD0DC08091E8008B778093E80052
:107110008091E80082FDF3CF8EB38111F9CF02C0D8
:107120008091F100089593E09093E9009091E80038
:1071300095FF03C08093F10008959091E8009E7739
:107140009093E8009091E80090FDF4CF9EB39111E8
:10715000F9CF0895F89481E085BF15BE0C94000026
:10716000089542E061EC82E0DFD242E161E883E031
:10717000DBD242E160E884E0D7C28091A601982F7B
:107180009F77913239F59091A701903291F0913229
:1071900009F5813AF9F48091E800877F8093E8004F
:1071A00067E070E080E091E0F0D38091E8008B77B9
:1071B0000FC0813279F48091E800877F8093E800E6
:1071C00067E070E080E091E038D48091E8008E774D
:1071D0008093E80008954F925F926F927F928F9212
:1071E0009F92AF92BF92CF92DF92EF92FF920F9356
:1071F0001F93CF93DF9384E08093E9008091E800B0
:1072000082FF14C279DFC82F853451F407B600FC21
:10721000FDCFF999FECF81E180935700E89503C037
:10722000843521F469DF8DE07EDFD7C18C34D9F35A
:107230008035C9F3843721F484E475DF80E0F4CF2E
:10724000813611F489E5F0CF813491F455DFC82FF0
:1072500053DF2C2F30E0322F2227330F90E0880F9E
:10726000991F822B932B092E000CAA0BBB0B89C1F3
:10727000803711F483E5D8CF833549F4C7E9D1E0ED
:10728000899151DF21E0CE39D207D1F7A6C18635E9
:1072900021F481E348DF80E3C7CF833731F487E807
:1072A00042DF85E940DF8EE1BFCF8536B9F4E0E00B
:1072B000F0E083E095E080935700E89507B600FC86
:1072C000FDCF90935700E89507B600FCFDCFE0583E
:1072D000FF4FE11540E7F40771F7A5CF823719F4A6
:1072E000E1E0F0E00EC0863419F4E0E0F0E009C01F
:1072F0008E3419F4E3E0F0E004C0813539F4E2E0C3
:10730000F0E089E08093570084918ECF823631F48B
:1073100089E509DF80E007DF80E886CF823419F055
:10732000873609F0C6C0E8DE082FE6DED82FE4DE97
:10733000182F8BEB810F823010F08FE375CF8D2FDC
:1073400090E0902BC73609F042C021E1209357000E
:10735000E895EC01B12C01E0209709F43EC1C09002
:10736000A001D090A101E090A201F090A3011634F9
:10737000B9F4EB2DF0E0EC29FD298491D4DEBB209B
:1073800069F052E0C50ED11CE11CF11CC092A001B5
:10739000D092A101E092A201F092A301B02615C003
:1073A000D701C601B695A795979587959AD4BBDE68
:1073B00082E0C80ED11CE11CF11CC092A001D09249
:1073C000A101E092A201F092A3012197C5CF809084
:1073D000A0019090A101A090A201B090A301163449
:1073E00041F423E0F40120935700E89507B600FC30
:1073F000FDCFE12CF12CEC0101E0209709F44DC008
:10740000163439F5FF2009F14090A0015090A101F8
:107410006090A2017090A3016FDE2E2D30E0A901D3
:10742000582BF2010A0100935700E8951124F2E06D
:107430004F0E511C611C711C4092A0015092A10181
:107440006092A2017092A30102C056DEE82EF026DF
:1074500022C052DE682F8091A0019091A101A091DD
:10746000A201B091A301B695A7959795879541D4B0
:107470008091A0019091A101A091A201B091A301DE
:107480000296A11DB11D8093A0019093A101A0932C
:10749000A201B093A3012197B0CF163409F0C3CE57
:1074A00085E0F40180935700E89507B600FCFDCF16
:1074B000BACE833471F4C091A001D091A1011CDE39
:1074C00090E021E0FE010C0120935700E895112483
:1074D000AACE833601F5C090A001D090A101E09022
:1074E000A201F090A30108DEF601E16090E021E046
:1074F0000C0120935700E8951124F2E0CF0ED11C27
:10750000E11CF11CC092A001D092A101E092A20165
:10751000F092A30188CE8D3661F4E091A001F09144
:10752000A10185E080935700E89507B600FCFDCFE8
:107530007ACE823551F4E091A001F091A101C5917C
:10754000D4918D2FF0DD8C2F6FCE843419F5D4DDDE
:10755000682F8091A0019091A101A091A201B0910A
:10756000A301B695A79597958795C3D38091A00160
:107570009091A101A091A201B091A3010296A11D39
:10758000B11D8093A0019093A101A093A201B0939B
:10759000A30149CE8436F1F4C090A001D090A1019E
:1075A000E090A201F090A301D701C601B695A7957E
:1075B0009795879596D3B7DD22E0C20ED11CE11CCA
:1075C000F11CC092A001D092A101E092A201F09220
:1075D000A30103C08B3109F0B0CE83E08093E900B2
:1075E0009091E8008091E8008E778093E80095FD07
:1075F00011C08091E80080FD04C08EB38111F9CFE5
:1076000015C08091E8008E778093E80003C08EB3A8
:10761000882361F08091E80080FFF9CF84E08093B7
:10762000E9008091E8008B778093E800DF91CF91AB
:107630001F910F91FF90EF90DF90CF90BF90AF9090
:107640009F908F907F906F905F904F900895CF9311
:10765000DF931092000814BE0FB6F894A89580919D
:107660006000886180936000109260000FBE80E827
:1076700090E00FB6F89480936100909361000FBE84
:1076800091E095BF92E095BF8093610010926100F8
:107690006E98769AE0E0F0E0C591D491B0D07894FD
:1076A000219611F0669903C096DD04D3FDCF809139
:1076B000E00081608093E0004DDD80E090E0DF91AC
:1076C000CF910895292F30E02230310559F0233031
:1076D000310569F021303105F9F482E190E025E8C7
:1076E00031E01EC08EE390E027E431E019C088232A
:1076F00049F0813061F0823079F482E190E027E056
:1077000031E00EC084E090E023E431E009C086E27D
:1077100090E02BE131E004C080E090E020E030E038
:10772000FA013183208308958093E900EBEEF0E0C5
:10773000808181608083EDEEF0E010826093EC0048
:1077400040838091EE00881F8827881F08958091CC
:10775000A60187FF0FC08091E80082FD04C08EB3B0
:107760008111F9CF10C08091E8008B770AC08EB3E9
:10777000882349F08091E80080FFF9CF8091E800EC
:107780008E778093E80008950F931F93CF93DF9334
:1077900041D048D0C8EDD0E088818F778883888138
:1077A0008068888388818F7D888319BC1EBA109277
:1077B000A40100EE10E0F80180818B7F8083888136
:1077C0008160888342E060E080E0AEDFE1EEF0E0DF
:1077D00080818E7F8083E2EEF0E080818160808313
:1077E000808188608083F80180818E7F808388819A
:1077F00080618883DF91CF911F910F910895E7ED0C
:10780000F0E08081816080838AE482BF81E08093A0
:10781000A501BACFE8EDF0E080818E7F80831092E1
:10782000E20008951092DA001092E10008951F928C
:107830000F920FB60F9211242F933F934F935F93A4
:107840006F937F938F939F93AF93BF93EF93FF9328
:107850008091DA0080FF19C08091D80080FF15C0A8
:107860008091DA008E7F8093DA008091D90019BC74
:1078700080FF09C082E089BD09B400FEFDCF81E030
:107880008EBB17D202C01EBA14D28091E10080FFD5
:1078900017C08091E20080FF13C08091E2008E7FCC
:1078A0008093E2008091E20080618093E200809109
:1078B000D80080628093D80019BC85E08EBBF9D1D6
:1078C0008091E10084FF2BC08091E20084FF27C0FB
:1078D00019BC82E089BD09B400FEFDCF8091D800BB
:1078E0008F7D8093D8008091E1008F7E8093E100AE
:1078F0008091E2008F7E8093E2008091E2008160BF
:107900008093E2008091A401811106C08091E30080
:1079100087FD02C081E001C084E08EBBCAD18091A6
:10792000E10083FF21C08091E20083FF1DC08091B0
:10793000E100877F8093E10082E08EBB1092A4017A
:107940008091E1008E7F8093E1008091E2008E7F44
:107950008093E2008091E20080618093E20042E047
:1079600060E080E0E1DEA5D1FF91EF91BF91AF91A2
:107970009F918F917F916F915F914F913F912F9147
:107980000F900FBE0F901F9018952091AC01309171
:10799000AD012617370748F06115710539F42091BC
:1079A000E8002E772093E80001C0B901FC0120E037
:1079B0006115710571F18EB38823D9F18530D9F144
:1079C0008091E80083FD33C08091E80082FD29C0EA
:1079D0008091E80080FFECCF2091F3008091F200CD
:1079E00090E0922B6115710551F08830910538F4C3
:1079F00021912093F100615071090196F3CF21E0AC
:107A0000089709F020E08091E8008E778093E800E5
:107A1000CFCF2111D0CF05C08EB3882351F0853050
:107A200051F08091E80082FFF7CF80E0089581E077
:107A3000089582E0089583E008956115710529F4A1
:107A40002091E8002B772093E800FC016115710577
:107A500031F18EB3882359F1853059F18091E800D6
:107A600083FD23C08091E80082FFF0CF2091F300D6
:107A70008091F20090E0922B892B31F08091F100FF
:107A800081936150710991F78091E8008B77809321
:107A9000E800DCCF8EB3882351F0853051F080911F
:107AA000E80080FFF7CF80E0089581E0089582E04C
:107AB000089583E008950F931F93CF93DF9300D031
:107AC000CDB7DEB7E6EAF1E08EEA91E02091F10071
:107AD00021938E179F07D1F750DB8091E80083FF39
:107AE000D3C08091A6019091A701492F50E04A3060
:107AF000510508F0C9C0FA01EA5AF74CECC08238C7
:107B000009F0C2C08091AA0187708093E90080913A
:107B1000EB001092E9009091E800977F9093E800C5
:107B200085FB882780F98093F1001092F10085C0D1
:107B3000282F2D7F09F0A8C0823009F0A5C08091C0
:107B4000A801811127C08091AA01877009F49CC007
:107B50008093E9002091EB0020FF1CC0933021F4BA
:107B60008091EB00806214C09091EB009061909343
:107B7000EB0021E030E0A90102C0440F551F8A95B7
:107B8000E2F74093EA001092EA008091EB008860EF
:107B90008093EB001092E9008091E800877F50C04D
:107BA000811172C01091A8011F770FB7F8948091CE
:107BB000E800877F8093E800CADD8091E80080FFBD
:107BC000FCCF8091E3008078812B8093E300806874
:107BD0008093E300111102C082E001C083E08EBBFC
:107BE0000FBF52C08058823008F04EC0AE014F5FC8
:107BF0005F4F6091AA018091A8019091A90162DD77
:107C0000BC01892B09F440C09091E800977F9093C4
:107C1000E80089819A81B9DE8091E8008B778093B2
:107C2000E80032C0803881F58091E800877F80933A
:107C3000E8008091A4018093F1008091E8008E77A4
:107C40008093E80084DD20C081111EC08091A801CE
:107C50009091A90199270297BCF48091E800877F51
:107C60008093E8008091A8018093A40170DD809149
:107C7000A401811106C08091E30087FD02C081E06C
:107C800001C084E08EBB6DDA8091E80083FF0AC0FA
:107C90008091EB0080628093EB008091E800877F09
:107CA0008093E8000F900F90DF91CF911F910F917B
:107CB00008950895CF938EB3882359F0C091E900B9
:107CC000C7701092E9008091E80083FDF4DEC09354
:107CD000E900CF910895EE0FFF1F0590F491E02D7C
:107CE0000994F999FECF92BD81BDF89A992780B584
:107CF0000895262FF999FECF1FBA92BD81BD20BDF0
:107D00000FB6F894FA9AF99A0FBE01960895F8946E
:027D1000FFCFA3
:107D120000000000000008120350004C0041002047
:107D2200004C004100420053000000260350004C6A
:107D3200004100200041004C005400200043006F2D
:107D4200006E00740072006F006C006C00650072BF
:107D52000000000403090409023E0002010080320F
:107D6200090400000102020100052400100104249C
:107D720002040524060001070582030800FF090426
:107D82000100020A000000070504021000010705B5
:107D92008302100001120110010200000809127092
:107DA200A10100020100014341544552494E4100E4
:040000030000700089
:00000001FF
