:1070000055C000006EC000006CC000006AC00000E7
:1070100068C0000066C0000064C0000062C00000DC
:1070200060C000005EC00000BBC300005AC000008A
:1070300058C0000056C0000054C0000052C00000FC
:1070400050C000004EC000004CC000004AC000000C
:1070500048C0000046C0000044C0000042C000001C
:1070600040C000003EC000003CC000003AC000002C
:1070700038C0000036C0000034C0000032C000003C
:1070800030C000002EC000002CC000002AC000004C
:1070900028C0000026C0000024C0000022C000005C
:1070A00020C000001EC000001CC0000011241FBE34
:1070B000CFEFDAE0DEBFCDBF11E0A0E0B1E0ECED54
:1070C000FCE702C005900D92A63BB107D9F721E07D
:1070D000A6EBB1E001C01D92A43CB207E1F779D262
:1070E000BDC58ECF84E08093E9008091E80085FFE4
:1070F00003C08091F10008958091E8008B77809320
:10710000E8008091E80082FDF0CF8EB38111F9CFC5
:10711000089593E09093E9009091E80095FF03C0F3
:107120008093F10008959091E8009E779093E80095
:107130009091E80090FDF4CF9EB39111F9CF08959E
:10714000F89481E085BF15BE0C940000089542E0DC
:1071500061EC82E0A2D242E161E883E09ED242E1AA
:1071600060E884E09AC28091BB01982F9F779132AA
:10717000B9F49091BC019032A1F0913289F4813A36
:1071800079F48091E800877F8093E80067E070E001
:1071900080E091E0B4D38091E8008B778093E800A1
:1071A00008958132E9F78091E800877F8093E800B5
:1071B00067E070E080E091E0F6D38091E8008E77A0
:1071C000EDCF4F925F926F927F928F929F92AF928C
:1071D000BF92CF92DF92EF92FF920F931F93CF93C4
:1071E000DF9384E08093E9008091E80082FFE0C1B2
:1071F00079DF082F8B3109F441C0EFEBE80FE4335E
:1072000008F097C0F0E0E05DF14C0CC507B600FC5B
:10721000FDCFF999FECF81E180935700E8958DE08D
:1072200078DF2CC05FDFFBCF84E473DF80E0F8CF32
:1072300089E5F6CF57DFC82F55DF2C2F30E0322FEE
:107240002227330F90E0880F991F822B932B092E52
:10725000000CAA0BBB0B8093B6019093B701A093CF
:10726000B801B093B901DBCF83E5DACFCCEAD1E046
:1072700089914FDF21E0C33BD207D1F783E08093B0
:10728000E9009091E8008091E8008E778093E80013
:1072900095FF81C18091E80080FF87C184E08093E1
:1072A000E9008091E8008B778093E80081C181E359
:1072B00030DF80E3B5CF87E82CDF85E92ADF8EE178
:1072C000AFCFE0E0F0E083E095E087BFE89507B658
:1072D00000FCFDCF97BFE89507B600FCFDCFE05856
:1072E000FF4FE11520E7F20781F799CF89E0E1E050
:1072F000F0E080935700849193CF89E0E0E0F0E0E4
:10730000F8CF89E0E3E0F0E0F4CF89E0E2E0F0E0FC
:10731000F0CF89E5FEDE80E0FCDE80E881CFE2DEB2
:10732000D82FE0DEC82FDEDE182F8BEB810F8230E6
:1073300010F08FE375CF073609F042C081E18093EA
:107340005700E89500E0BB24B394209709F496CF4A
:10735000C090B601D090B701E090B801F090B901AB
:107360001634C1F4E02FF0E0EC29FD298491D1DE40
:10737000011569F082E0C80ED11CE11CF11CC0921D
:10738000B601D092B701E092B801F092B9010B2595
:107390002197DBCFD701C601B695A795979587951D
:1073A00047D4B7DEE2E0CE0ED11CE11CF11CC09246
:1073B000B601D092B701E092B801F092B901E8CFDE
:1073C0004090B6015090B7016090B8017090B9013B
:1073D00000E0163449F483E0F20187BFE89587B7EF
:1073E000082F017080FDFBCFF12CEE24E39423C025
:1073F000163489F5F11461F18090B6019090B701CF
:10740000A090B801B090B9016DDE982F802FF401E3
:107410000C01E7BEE8951124F2E08F0E911CA11C2F
:10742000B11C8092B6019092B701A092B801B092BF
:10743000B901FE2421972097D9F6163409F0EFCE32
:1074400085E0F20187BFE89507B600FCFDCFE7CEE7
:1074500049DE082FEECF46DE682F8091B60190916D
:10746000B701A091B801B091B901B695A7959795CC
:107470008795E6D38091B6019091B701A091B801AC
:10748000B091B9010296A11DB11D8093B6019093F0
:10749000B701A093B801B093B901CCCFC091B601A8
:1074A000D091B7011FDE90E021E0FE010C0127BF63
:1074B000E8951124B4CEC090B601D090B701E09009
:1074C000B801F090B9010EDEF601E16090E021E034
:1074D0000C0127BFE8951124F2E0CF0ED11CE11C6E
:1074E000F11CC092B601D092B701E092B801F092BF
:1074F000B90195CEE091B601F091B70185E087BF63
:10750000E89507B600FCFDCF8ACEE091B601F09178
:10751000B701C591D5918D2FFCDD8C2F81CEE2DD99
:10752000682F8091B6019091B701A091B801B091F8
:10753000B901B695A7959795879582D38091B601A5
:107540009091B701A091B801B091B9010296A11D27
:10755000B11D81CEC090B601D090B701E090B801C6
:10756000F090B901D701C601B695A7959795879573
:107570005FD3CFDD22E0C20ED11CE11CF11CC09212
:10758000B601D092B701E092B801F092B90176CE7F
:107590008EB3811569F08091E80080FFF9CF80916A
:1075A000E8008E778093E80075CE8EB3811172CE9D
:1075B000DF91CF911F910F91FF90EF90DF90CF90CF
:1075C000BF90AF909F908F907F906F905F904F9003
:1075D00008951092000814BE0FB6F894A8958091F3
:1075E0006000886180936000109260000FBE80E8A8
:1075F00090E00FB6F89480936100909361000FBE05
:1076000091E095BF92E095BF809361001092610078
:107610006E98769AE0E0F0E0C591D591A9D0789483
:10762000CF3FDC0711F0669903C0CBDDEAD2FDCF76
:107630008091E00081608093E00082DD80E090E056
:107640000895FA01292F30E09230E9F02330310516
:1076500051F021303105E1F482E190E02AE931E096
:10766000318320830895833098F490E0DC01AA0FE1
:10767000BB1FA65FBE4F2D913C91895F9E4FDC01E1
:107680008C9190E0EDCF8EE390E02CE531E0E8CFF7
:1076900080E090E020E030E0E3CF8093E900EBEE83
:1076A000F0E0808181608083EDEEF0E010826093F5
:1076B000EC0040838091EE0087FB882780F90895D5
:1076C0008091BB0187FF11C08091E80082FF06C056
:1076D0008091E8008B778093E80008958EB3811144
:1076E000F3CF08958EB38115E1F38091E80080FF18
:1076F000F9CF8091E8008E77EECF0F931F93CF9351
:10770000DF9341D048D0C8EDD0E088818F7788835F
:1077100088818068888388818F7D888319BC1EBAA0
:107720001092BA0100EE10E0F80180818B7F808317
:1077300088818160888342E060E080E0AEDFE1EE36
:10774000F0E080818E7F8083E2EEF0E080818160D6
:107750008083808188608083F80180818E7F808330
:10776000888180618883DF91CF911F910F91089567
:10777000E7EDF0E08081816080838AE482BF81E070
:107780008093C301BACFE8EDF0E080818E7F8083E3
:107790001092E20008951092DA001092E10008952C
:1077A0001F920F920FB60F9211242F933F934F9376
:1077B0005F936F937F938F939F93AF93BF93EF9359
:1077C000FF938091DA0080FF16C08091D80080FF7F
:1077D00012C08091DA008E7F8093DA008091D90008
:1077E00019BC80FF83C082E089BD09B400FEFDCFD3
:1077F00081E08EBB05D28091E10080FF17C08091AF
:10780000E20080FF13C08091E2008E7F8093E2004F
:107810008091E20080618093E2008091D8008062D4
:107820008093D80019BC85E08EBBEAD18091E1003D
:1078300084FF26C08091E20084FF22C019BC82E050
:1078400089BD09B400FEFDCF8091D8008F7D809363
:10785000D8008091E1008F7E8093E1008091E2006A
:107860008F7E8093E2008091E20081608093E2004D
:107870008091BA01811509F43CC084E08EBBC0D16F
:107880008091E10083FF21C08091E20083FF1DC051
:107890008091E100877F8093E10082E08EBB1092AF
:1078A000BA018091E1008E7F8093E1008091E20037
:1078B0008E7F8093E2008091E20080618093E200FD
:1078C00042E060E080E0E9DE9BD1FF91EF91BF9163
:1078D000AF919F918F917F916F915F914F913F9168
:1078E0002F910F900FBE0F901F9018951EBA88D140
:1078F00082CF8091E30087FDC0CF81E0BFCFFC0144
:107900009B018091C1019091C2018617970718F0E1
:10791000672B61F0C90140E0009771F441110CC080
:107920008091E80082FF34C080E008958091E800F3
:107930008E778093E800EECF2EB3211591F125309C
:1079400061F12091E80023FD2AC02091E80022FD8A
:10795000E7CF2091E80020FFDFCF3091F3002091A6
:10796000F200009719F02830310558F041E0283036
:10797000310509F040E02091E8002E772093E800DF
:10798000CBCF41914093F10001972F5F3F4FE9CF5B
:107990008EB3811531F0853019F683E0089581E0CA
:1079A000089582E00895FC01CB01009749F580918C
:1079B000E8008B778093E8008091E80080FF25C085
:1079C00080E00895253011F483E008952091E800C7
:1079D00023FD21C02091E80022FF12C03091F30066
:1079E0002091F200232B29F02091F100219301979F
:1079F000A9F72091E8002B772093E8000097E1F2A7
:107A00002EB32111DFCF82E008958EB38115D9F313
:107A1000853091F6D9CF81E008950F931F93CF93CE
:107A2000DF9300D0CDB7DEB78BEB91E0FC01019680
:107A30002091F100208321E0833C9207B9F793DB8A
:107A40008091E80083FF80C08091BB019091BC01D0
:107A50009A3008F079C0E92FF0E0EC59F14CE2C01F
:107A6000823809F071C08091BF0187708093E9006E
:107A70008091EB001092E9009091E800977F90933D
:107A8000E80085FB882780F98093F1001092F100CF
:107A90008091E8008E771FC0823009F055C0809138
:107AA000BD01811113C08091BF018770811509F458
:107AB0004BC08093E9002091EB0020FF07C093307A
:107AC00071F48091EB0080628093EB001092E900EA
:107AD0008091E800877F8093E800F2DD35C09091C7
:107AE000EB0090619093EB0021E030E0A90102C02F
:107AF000440F551F8A95E2F74093EA001092EA007E
:107B00008091EB008860E0CF81111EC01091BD0113
:107B10001F770FB7F8948091E800877F8093E80083
:107B2000CFDD8091E80080FFFCCF8091E30080787A
:107B3000812B8093E30080688093E30083E0111140
:107B400001C082E08EBB0FBF8091E80083FF0AC0B6
:107B50008091EB0080628093EB008091E800877F4A
:107B60008093E8000F900F90DF91CF911F910F91BC
:107B700008958058823040F7AE014F5F5F4F6091AB
:107B8000BF018091BD019091BE015BDDBC01892BDD
:107B9000D9F28091E800877F8093E80089819A81FB
:107BA000AEDE8091E8008B778093E800CDCF8038FF
:107BB00059F68091E800877F8093E8008091BA01B0
:107BC0008093F10065CF8111BFCF9091BD019230BC
:107BD00008F0BACF8091E800877F8093E800909307
:107BE000BA016EDD8091BA01811521F084E08EBB6F
:107BF000AEDAAACF8091E30087FDF8CF81E0F7CF1E
:107C00000895CF938EB3811559F0C091E900C770E4
:107C10001092E9008091E80083FDFFDEC093E90047
:107C2000CF910895EE0FFF1F0590F491E02D099478
:107C3000F999FECF92BD81BDF89A992780B5089534
:107C4000262FF999FECF1FBA92BD81BD20BD0FB678
:107C5000F894FA9AF99A0FBE01960895F894FFCF16
:107C60001A398F394E3A8F3A06397D39993999390F
:107C70009939993999390F399939813999390F39A0
:107C80008539853A363912399939573999399939B7
:107C90009939993999399939993999399939993954
:107CA000183989395B3AAA3A613999398F39993942
:107CB00099399939993999397A3A993999393439B7
:107CC000993976395B391439303D4C3DA43D4C3DF2
:0C7CD000A43D843DB93DA43DD73DE33DFB
:107CDC0000000000000008043212580124011001B9
:107CEC00120350004C00410020004C0041004200A7
:107CFC0053000000320350004C00410020004600AD
:107D0C00500053007E0058004C00520038005200C6
:107D1C00200043006F006E00740072006F006C0056
:107D2C006C006500720000000403090409023E00A7
:107D3C000201008032090400000102020100052446
:107D4C000010010424020405240600010705820327
:107D5C000800FF09040100020A00000007050402E4
:107D6C00100001070583021000011201100102002E
:107D7C000008091270A101000201000143415445A1
:067D8C0052494E410000C7
:040000030000700089
:00000001FF
